:100000000C94E8010C9415020C9415020C94150242
:100010000C9415020C9415020C9415020C94150204
:100020000C9415020C9415020C9415020C941502F4
:100030000C9415020C9415020C9415020C941502E4
:100040000C9415020C9415020C9415020C941502D4
:100050000C9415020C9415020C9415020C94771351
:100060000C9415020C94AE160C94F6170C94150211
:100070000C9415020C9415020C9415020C941502A4
:100080000C9415020C9415020C9415020C94150294
:100090000C94EE160C9435180C9415020C949710D1
:1000A0000C9415020C9415020C9415020C94150274
:1000B0000C9415020C9415020C9415020C94150264
:1000C0000C9415020C9415020C9415020C942E1726
:1000D0000C9474180C9415020C946E170C94B318AD
:1000E0000C9415020A0B0C0D0E0F11121314151699
:1000F0000001020304054B02510257025F0268022D
:1001000072027B0282028A02910298029F0250418F
:1001100020506F77657209203D2025530D0A00435A
:100120005243204C656E67746809203D2025530DAD
:100130000A004D6F64656C0909203D2025530D0AA6
:100140000044617461205261746509203D2025538B
:100150000D0A0044594E50442F46454154555245CE
:1001600000434F4E4649470052465F534554555051
:100170000052465F434800454E5F52584144445246
:1001800000454E5F41410052585F50575F50302D3F
:10019000360054585F414444520052585F41444431
:1001A000525F50322D350052585F414444525F50E7
:1001B000302D31000D0A00253032780020307800D3
:1001C0002553092563203D000D0A00203078253095
:1001D0003278002553092563203D004F4253455294
:1001E00056455F54583D253032783A20504F4C5395
:1001F0005F434E543D2578204152435F434E543D6A
:1002000025780D0A005354415455530909203D20C7
:100210003078253032782052585F44523D2578207E
:1002200054585F44533D2578204D41585F52543D0A
:1002300025782052585F505F4E4F3D257820545806
:100240005F46554C4C3D25780D0A00314D425053C8
:1002500000324D425053003235304B425053006E05
:10026000524632344C3031006E524632344C3031CA
:100270002B0044697361626C6564003820626974A4
:100280007300313620626974730050415F4D494EEE
:100290000050415F4C4F57004C415F4D454400506A
:1002A000415F484947480000002100240027002AF8
:1002B000002D003000330001010000040107010A95
:1002C0000100002200250028002B002E0031003400
:1002D0000002010000050108010B010000200023BD
:1002E00000260029002C002F00320000010000032E
:1002F00001060109010505050507050808080802AA
:100300000202020A0A0808040404040101010101AE
:100310000101010303030303030303040707070C9D
:100320000C0C0C0C0C0C0C02020202060606060653
:100330000606060B0B0B0B0B0B0B0B010210202000
:100340000808102040102040800201020108040229
:10035000010102040810204080804020100804029F
:1003600001800402018040201008040201080402F8
:1003700001010204081020408001020408102040FE
:10038000800000090A02080B0C0D07060304010097
:10039000000000000000000000000000000000005D
:1003A0000000000000000000000000000011100F1D
:1003B000000000000000000000000000000000003D
:1003C0000000000000000000B802B512231AB102BC
:1003D00011241FBECFEFD1E2DEBFCDBF00E00CBFC6
:1003E00016E0A0E0B2E0EAE4FEE300E00BBF02C0EA
:1003F00007900D92A230B107D9F71BBE19E0A2E019
:10040000B6E001C01D92A73FB107E1F713E0CEECC3
:10041000D3E004C02297FE010E94141FC83CD107FC
:10042000C9F70E94BA1D0C9435020C940000FC011F
:1004300088279927E89421912032E9F3293010F098
:100440002E30C8F32B3241F02D3239F4689404C0B9
:100450000E948802820F911D219120532A30C0F3FF
:100460001EF4909581959F4F0895F8940C94181F51
:1004700042E056E00E9456020895FB01DC0102C0F2
:1004800001900D9241505040D8F70895FB01DC01D6
:100490008D91019080190110D9F3990B0895FB01FA
:1004A000DC0101900D920020E1F70895009731F4EE
:1004B000DA018D919C91009709F40EC0DC01FB01DB
:1004C0003D912191222319F03217C9F3FACF33233A
:1004D00031F4DA011D921C9288279927089511970B
:1004E000AF93BF93FB013D912191321771F43323F8
:1004F00021F488279927119702C01E921196FA01BC
:10050000A193B0839F918F910895222369F7EACF39
:100510007AE0979F902D879F802D910D112408954B
:1005200081309105A1F46F5F7F4FD1F484E096E0B4
:1005300060E072E00E949A1D8BE096E066E347E37C
:100540000E94380A8BE196E00E94C30E0895892B21
:1005500039F46F5F7F4F21F484E096E00E94B41D70
:10056000089580E090E06FEF7FEF0E949002089581
:1005700081E090E06FEF7FEF0E9490020895CF92AC
:10058000DF92EF92FF920F931F93DF93CF93CDB73C
:10059000DEB7C058D0400FB6F894DEBF0FBECDBF57
:1005A0000E94BF137B018C018091760690917706A3
:1005B000A0917806B0917906A8019701281B390B04
:1005C0004A0B5B0B8091D2059091D305A091D40585
:1005D000B091D505281739074A075B0708F465C0AD
:1005E000E0927606F09277060093780610937906EB
:1005F0008BE196E06AE276E04CE256E02EE236E0ED
:1006000000E316E0F2E3EF2EF6E0FF2EE4E3CE2E59
:10061000E6E0DE2E0E94C70E8091390620913A0650
:1006200030913B0640912A0650912B06E091C4057B
:10063000F091C50500912C0610912D068823D9F064
:10064000265A3F4FCA0164EB70E00E94DD1E260F60
:10065000371F3093450620934406E65AFF4FC801E2
:1006600064EB70E00E94DD1EE60FF71FF093430677
:10067000E09342061AC0265A3F4FCA0164EB70E06D
:100680000E94DD1E260F371F30934306209342063B
:10069000E65AFF4FC80164EB70E00E94DD1EE60FD2
:1006A000F71FF0934506E09344068BE699E00E941D
:1006B0007919181619066CF48BE699E06AE0AE0118
:1006C0004F5F5F4F20E430E00E94EB1C81E080939D
:1006D00052068BE096E00E94490B882389F0FE01C8
:1006E000EF5BFF4F80E4DF011D928A95E9F78BE015
:1006F00096E0BF0140E40E94930C81E08093520693
:1007000080915206882309F46BC18BE699E08E0133
:100710000F5F1F4FB8010E94791C10925206C8014A
:1007200066E072E00E94380268E072E00E944602D1
:10073000009709F04CC08BE699E06CE072E00E94F3
:10074000791CFF24F39439C0C80101960E94170256
:10075000F80120812B3631F12C363CF42936D9F0C2
:100760002A3604F5283649F524C0283729F02937D8
:1007700041F02D3611F50AC09093CD058093CC053C
:100780001CC09093CF058093CE0517C09093D105E0
:100790008093D00512C010923906892B71F0F09227
:1007A00039060BC010923806892B39F0F0923806C2
:1007B00004C09093C7058093C60580E090E066E092
:1007C00072E00E9438028C01009709F0BDCFCE0183
:1007D000019666E072E00E9438026CE172E00E94CD
:1007E0004602009749F48BE699E060E272E00E94CD
:1007F000791C81E080935C06CE01019666E072E090
:100800000E94380261E372E00E944602009741F4C0
:100810008BE699E061E372E00E94791C10925C061D
:10082000CE01019666E072E00E94380266E372E053
:100830000E944602009751F48BE699E066E372E06D
:100840000E94791C10925C0610925306CE0101960C
:1008500066E072E00E9438026CE372E00E94460299
:10086000009779F481E080935E068BE699E061E47D
:1008700072E00E94791C60ED77E080E090E00E94D9
:10088000CD13CE01019666E072E00E9438026FE45B
:1008900072E00E9446020097C1F022C0C801019692
:1008A0000E941702D8012C91243619F0233779F4CD
:1008B00007C010925806892B51F0F092580607C0D5
:1008C00090934F0680934E0602C0FF24F39480E07D
:1008D00090E066E072E00E9438028C010097F1F629
:1008E000CE01019666E072E00E94380266E572E091
:1008F0000E9446020097D9F58BE699E06CE072E021
:100900000E94791CFF24F39429C0C80101960E941B
:100910001702F8012081223679F023361CF42136A3
:10092000E9F405C0233669F02436C1F411C0909370
:100930003D0680933C0612C090933F0680933E068E
:100940000DC01092CA05892B49F0F092CA0506C065
:100950001092CB05892B11F0F092CB0580E090E04E
:1009600066E072E00E9438028C01009771F6CE01B9
:10097000019666E072E00E9438026BE572E00E9428
:100980004602009711F12CC0C80101960E9417027F
:10099000D8012C91283759F02A3781F02136B9F443
:1009A00010925F06892B99F0F0925F0610C01092AA
:1009B0006006892B61F0F092600609C01092610612
:1009C000892B29F0F092610602C0FF24F39480E0A5
:1009D00090E066E072E00E9438028C010097A1F678
:1009E00083E060915F060E94451582E06091600699
:1009F0000E94451584E0609161060E944515809132
:100A00005E06882309F4F7C021E020935F06209357
:100A100060062093610680914206909143068A35D4
:100A200091051CF41092560602C020935606809140
:100A30003806882351F080915606882319F01092C9
:100A4000560603C081E0809356068AE06091560600
:100A50000E94451560914206709143062091CC0595
:100A60003091CD054091C6055091C705CA01820F4E
:100A7000931F861797072CF0241B350B62177307FB
:100A80008CF489E061E00E94451584EF91E00E94BA
:100A9000261489E060E00E94451584EF91E00E94F1
:100AA000261413C080915906882379F48BE699E0C7
:100AB00062E672E00E94791C81E08093590660ED45
:100AC00077E080E090E00E94CD1380914406909101
:100AD00045068A3591051CF41092570603C081E043
:100AE000809357068091BB05882351F0809157066B
:100AF000882319F01092570603C081E080935706AF
:100B00008CE0609157060E9445154091CE055091AA
:100B1000CF056091C6057091C7059B01240F351F55
:100B20008091420690914306281739074CF0461BE6
:100B3000570B8091440690914506841795078CF4D5
:100B40008BE061E00E94451584EF91E00E9426143D
:100B50008BE060E00E94451584EF91E00E9426142E
:100B600013C080915A06882379F48BE699E06BE6EE
:100B700072E00E94791C81E080935A0660ED77E074
:100B800080E090E00E94CD1380915B06882399F469
:100B90008BE699E064E772E00E94791C81E0809323
:100BA0005B06109251061092500660ED77E080E0EF
:100BB00090E00E94CD13809159068823E1F0809146
:100BC0005A068823C1F080915B068823A1F08BE64A
:100BD00099E06DE772E00E94791C8BE699E066E887
:100BE00072E00E94791C8BE699E065E972E00E9450
:100BF000791C10925E0680915C06882309F4D9C2A4
:100C000080915306882309F0D4C221E020935F0627
:100C1000209360062093610680913C0690913D06EA
:100C2000181619061CF42093400602C010924006C4
:100C300060913C0670913D0688EE93E00E94DD1EB7
:100C400070933D0660933C0680913606882351F0F0
:100C50008091CA05882319F01092CA0503C081E06B
:100C60008093CA0586E06091CA050E9445150E94DE
:100C7000BF137B018C0180916E0690916F06A0914D
:100C80007006B0917106A8019701281B390B4A0B19
:100C90005B0B80913C0690913D06AA2797FDA0959D
:100CA000BA2F281739074A075B07E0F0E0926E0673
:100CB000F0926F06009370061093710680914006C3
:100CC000882381F085E061E00E94451584EF91E082
:100CD0000E94261485E060E00E94451584EF91E0B3
:100CE0000E94261480913E0690913F061816190620
:100CF00024F481E08093410602C010924106609185
:100D00003E0670913F0688EE93E00E94DD1E7093D0
:100D10003F0660933E0680913706882351F080910C
:100D2000CB05882319F01092CB0503C081E0809396
:100D3000CB0588E06091CB050E9445150E94BF134A
:100D40007B018C018091720690917306A0917406CC
:100D5000B0917506A8019701281B390B4A0B5B0B54
:100D600080913E0690913F06AA2797FDA095BA2F45
:100D7000281739074A075B07E0F0E0927206F09205
:100D800073060093740610937506809141068823BC
:100D900081F087E061E00E94451584EF91E00E94B8
:100DA000261487E060E00E94451584EF91E00E94E0
:100DB000261480914206909143068A3591051CF4D1
:100DC0001092560603C081E0809356068091380643
:100DD000882351F080915606882319F01092560608
:100DE00003C081E0809356068AE0609156060E9417
:100DF000451540914206509143062091CC05309113
:100E0000CD056091C6057091C705CB01820F931F78
:100E1000841795072CF0261B370B4217530794F4C1
:100E20008091BC059091BD05841795075CF4809175
:100E3000BE059091BF054817590724F481E08093BF
:100E4000540602C010925406209142063091430687
:100E50002A35310544F48AE590E0821B930B909388
:100E60004706809346068091420690914306892B5F
:100E700021F4109247061092460680914206909106
:100E800043068B35910534F08A5590409093470680
:100E900080934606609146067091470688EE93E07F
:100EA0000E94DD1E2091D0053091D105629FC001C6
:100EB000639F900D729F900D112490934B06809329
:100EC0004A060F9734F48FE090E090934B0680939E
:100ED0004A060E94BF137B018C01809162069091AB
:100EE0006306A0916406B0916506A8019701281BCE
:100EF000390B4A0B5B0B80914A0690914B06AA274F
:100F000097FDA095BA2F281739074A075B07E0F02D
:100F1000E0926206F0926306009364061093650601
:100F200080915406882381F089E061E00E94451594
:100F300084EF91E00E94261489E060E00E9445154C
:100F400084EF91E00E94261480914406909145061A
:100F50008A3591051CF41092570603C081E08093F6
:100F600057068091BB05882351F08091570688234E
:100F700019F01092570603C081E0809357068CE069
:100F8000609157060E9445154091440650914506D0
:100F90002091CE053091CF056091C6057091C705AF
:100FA000CB01820F931F841795072CF0261B370B5C
:100FB0004217530794F48091C0059091C10584179E
:100FC00095075CF48091C2059091C30548175907B5
:100FD00024F481E08093550602C0109255062091BA
:100FE0004406309145062A35310544F48AE590E0FF
:100FF000821B930B90934906809348068091440688
:1010000090914506892B21F41092490610924806CA
:1010100080914406909145068B35910534F08A55B0
:1010200090409093490680934806609148067091DD
:10103000490688EE93E00E94DD1E2091D005309194
:10104000D105629FC001639F900D729F900D112486
:1010500090934D0680934C060F9734F48FE090E008
:1010600090934D0680934C060E94BF137B018C0128
:101070008091660690916706A0916806B091690616
:10108000A8019701281B390B4A0B5B0B80914C067A
:1010900090914D06AA2797FDA095BA2F28173907DA
:1010A0004A075B07E0F0E0926606F092670600935D
:1010B00068061093690680915506882381F08BE0BD
:1010C00061E00E94451584EF91E00E9426148BE0B8
:1010D00060E00E94451584EF91E00E9426148FE0A5
:1010E000609158060E94451580914E0690914F06DA
:1010F000892B09F448C00E94BF137B018C018091A9
:101100006A0690916B06A0916C06B0916D06A801DD
:101110009701281B390B4A0B5B0B80914E0690916F
:101120004F06AA2797FDA095BA2F281739074A0717
:101130005B0748F1E0926A06F0926B0600936C063A
:1011400010936D068BE061E00E94451584EF91E0FD
:101150000E9426148BE060E00E94451584EF91E028
:101160000E94261480915806209150063091510615
:10117000882319F02F5F3F4F02C021503040309339
:101180005106209350068091500690915106893C5B
:10119000910521F41092510610925006809150064C
:1011A000909151068F5F9F4F21F41092510610923B
:1011B00050060E94BF137B018C0180917A069091AA
:1011C0007B06A0917C06B0917D06A8019701281BA3
:1011D000390B4A0B5B0B8091D6059091D705A091F6
:1011E000D805B091D905281739074A075B0760F180
:1011F000E0927A06F0927B0600937C0610937D06BF
:1012000080915D06882319F010925D0603C081E08D
:1012100080935D068DE060915D060E9445158BE12F
:1012200096E00E94920F10925C0611E01093530614
:101230008BE196E00E945F0F8BE196E00E94920F97
:10124000882311F010935C06C058DF4F0FB6F89456
:10125000DEBF0FBECDBFCF91DF911F910F91FF90E9
:10126000EF90DF90CF900895EF92FF920F931F932E
:1012700083E061E00E94921482E061E00E94921497
:1012800084E061E00E9492148AE061E00E9492147E
:1012900089E061E00E9492148CE061E00E94921467
:1012A0008BE061E00E94921486E061E00E9492145B
:1012B00085E061E00E94921488E061E00E9492144F
:1012C00087E061E00E9492148DE061E00E94921438
:1012D00080E160E00E9492148BE699E040E855E2DC
:1012E00060E070E00E94F2188BE699E06BEB72E030
:1012F0000E94791C8BE699E06EEE72E00E94791CE8
:101300008BE699E061E273E00E94791C8BE699E03C
:1013100064E573E00E94791C8BE699E067E873E06E
:101320000E94791C8BE699E06AEB73E00E94791CBD
:101330008BE699E06DEE73E00E94791C8BE699E0F4
:1013400060E274E00E94791C8BE699E063E574E04A
:101350000E94791C8BE699E066E874E00E94791C93
:101360008BE699E069EB74E00E94761C8BE699E0CD
:1013700064E076E00E948C1C8BE699E068ED74E0F6
:101380000E94791C8BE699E06BEB72E00E94791C5D
:101390008BE699E066E072E00E94791C8BE699E0AA
:1013A00068EE74E00E94791C8BE699E06AEF74E0C5
:1013B0000E94761C6091C8057091C9058BE699E082
:1013C0004AE050E00E94631C6091C8057091C90515
:1013D00086E397E00E9474138BE699E068E275E07B
:1013E0000E94761C8BE196E00E945F0F8BE196E0F5
:1013F0000E94920F882319F466E475E002C068E544
:1014000075E08BE699E00E94791C8BE699E06EE628
:1014100075E00E94791C8BE096E00E94DA0C8BE06C
:1014200096E060E0EE24E394FF2400E010E020E08A
:1014300030E040E050E00E94140C8BE096E00E9407
:10144000A00C8BE699E061E975E00E94791C8BE6BF
:1014500099E066EA75E00E94791C8BE699E061E903
:1014600075E00E94791C1F910F91FF90EF900895F5
:10147000FC016083418381E08283138280E2848364
:10148000158216821086118612861386148615869A
:10149000168617860895FF920F931F938C01F62EE0
:1014A00081E00E949A0F80E00E94A30F80E00E94DA
:1014B000A80FF80181816F2D0E9445151F910F9192
:1014C000FF9008951F93CF93DF93EC0160E070E0ED
:1014D0000E944B0A8FEF8EBD0DB407FEFDCF1EB5E7
:1014E000CE0161E070E00E944B0A812FDF91CF9125
:1014F0001F9108951F93CF93DF93EC0160E070E09C
:101500000E944B0A81EE8EBD0DB407FEFDCF1EB5C5
:10151000CE0161E070E00E944B0A812FDF91CF91F4
:101520001F9108951F93CF93DF93EC0160E070E06B
:101530000E944B0A82EE8EBD0DB407FEFDCF1EB594
:10154000CE0161E070E00E944B0A812FDF91CF91C4
:101550001F910895EF92FF920F931F93CF93DF9304
:10156000EC01F62EE72E9C81142F941708F4192F06
:101570008E81882311F000E002C0092F011BCE01EB
:1015800060E070E00E944B0A81E68EBD0DB407FE5C
:10159000FDCF8F2D9E2D9C01F901FEB49FEF07C05A
:1015A0009EBD0DB407FEFDCF8EB581931150112362
:1015B000B9F707C08EBD0DB407FEFDCF9EB5015033
:1015C00001C08FEF0023B1F7CE0161E070E00E940F
:1015D0004B0A8F2DDF91CF911F910F91FF90EF90CC
:1015E00008950F931F93CF93DF93EC01162F042FD1
:1015F00060E070E00E944B0A1F7110621EBD0DB4C6
:1016000007FEFDCF1EB50EBD0DB407FEFDCF8EB596
:10161000CE0161E070E00E944B0A812FDF91CF91F3
:101620001F910F910895DF92EF92FF920F931F93F6
:10163000CF93DF938C017B010E94620AC82FD0E018
:10164000CE01A6E096958795AA95E1F7DD24D3947F
:10165000D82280FF15C0E114F10431F0CE01959538
:1016600087958770F7018083C80167E040E40E9496
:10167000F10AC5FF05C0C80167E040E20E94F10A17
:101680008D2DDF91CF911F910F91FF90EF90DF9003
:10169000089560E070E00E94130B0895462F6038B3
:1016A00008F04FE765E00E94F10A0895EF92FF927B
:1016B0000F931F93CF93DF937C01162FEA01022F24
:1016C00060E070E00E944B0A1F7110621EBD0DB4F5
:1016D00007FEFDCF1EB508C088818EBD0DB407FE84
:1016E000FDCF21968EB501500023B1F7C70161E00F
:1016F00070E00E944B0A812FDF91CF911F910F91D3
:10170000FF90EF9008951F93CF93DF93EC01162F76
:1017100060E070E00E944B0A1F711EBD0DB407FE11
:10172000FDCF8EB58FEF8EBD0DB407FEFDCF1EB57C
:10173000CE0161E070E00E944B0A812FDF91CF91D2
:101740001F9108950F931F93CF93DF938C01EB01AB
:1017500060E00E94830B482F437F209729F0219758
:1017600011F4486001C04C60C80160E00E94F10AB9
:10177000DF91CF911F910F910895FF920F931F93C7
:10178000CF93DF93EC018B0166E00E94830B1A82FA
:10179000B7EDFB2EF8220230110511F480E206C0ED
:1017A0000130110529F481E08A8388E0F82A01C01C
:1017B0001A82CE0166E04F2D0E94F10ACE0166E04A
:1017C0000E94830B8F1511F481E002C01A8280E021
:1017D000DF91CF911F910F91FF9008950F931F9369
:1017E000CF93DF938C01EB0166E00E94830B482FBF
:1017F000497FC330D10571F0C230D10511F4446086
:101800000AC0C130D10511F4426005C0209719F01B
:10181000249709F44660C80166E00E94F10ADF914E
:10182000CF911F910F910895BF92CF92DF92EF92C7
:10183000FF920F931F93DF93CF93CDB7DEB7289717
:101840000FB6F894DEBF0FBECDBF6C01B62EE98295
:10185000FA820B831C832D833E834F835887662334
:1018600089F4F601E0868A8181878B8182878C8169
:1018700083878D8184878E8185878F818687888500
:10188000878707C0F6E0F61708F43DC081E06817C7
:1018900061F4EB2DF0E0EC51FF4FE491C6016E2FA7
:1018A000AE014F5F5F4F25E00BC0E62FF0E0EC513B
:1018B000FF4FE491C6016E2FAE014F5F5F4F21E0F5
:1018C0000E94560B0B2D10E0F801E651FF4FE491FA
:1018D000C6016E2FF60144810E94F10AC60162E042
:1018E0000E94830B00511F4FF801649121E030E00A
:1018F00002C0220F331F6A95E2F7482F422BC60120
:1019000062E00E94F10A28960FB6F894DEBF0FBE7F
:10191000CDBFCF91DF911F910F91FF90EF90DF909E
:10192000CF90BF9008950F931F938C010E94AA0A35
:10193000C80167E10E94830B81701F910F91089588
:10194000CF93DF93EC0160E00E94830B482F43604C
:10195000CE0160E00E94F10ACE0167E040E70E94FC
:10196000F10A88859985892B9A85892B9B85892BF6
:101970009C85892B9D85892B9E85892B9F85892B0D
:1019800041F0AE01485F5F4FCE016AE025E00E9462
:10199000560BCE010E94920ACE010E947A0A8881DB
:1019A00061E00E94451582E890E00E942614DF91D4
:1019B000CF910895CF93DF93EC01888161E00E947D
:1019C0009214898161E00E9492140E94B90F88816B
:1019D00060E00E944515CE0161E070E00E944B0A74
:1019E00065E070E080E090E00E94CD13CE0164E0FD
:1019F0004FE40E94F10ACE0163E070E00E94EE0B1A
:101A0000CE0162E070E00E94BD0B882311F081E0FE
:101A10008B83CE0160E070E00E94BD0BCE0162E0DE
:101A200070E00E94A20BCE016CE140E00E94F10A3E
:101A3000CE0167E040E70E94F10ACE016CE40E940B
:101A40004E0BCE010E94920ACE010E947A0ADF91CB
:101A5000CF910895EF92FF920F931F93CF93DF934F
:101A6000582F162FE42E022FF32E86E397E0652FD2
:101A70000E944A1286E397E0612F0E94FD12202FF8
:101A80003F2DC901EC0110E006C086E397E06991A3
:101A90000E94FD121F5F1E15C0F386E397E00E94AF
:101AA000401390E0882309F491E0892FDF91CF91D2
:101AB0001F910F91FF90EF900895DF93CF930F92B6
:101AC000CDB7DEB7498341E09E012F5F3F4F0E94B3
:101AD0002A0D0F90CF91DF9108955F926F927F92C0
:101AE0008F929F92AF92BF92CF92DF92EF92FF922E
:101AF0000F931F93CF93DF93F82EE62E542E690198
:101B0000580186E397E06F2D0E944A1286E397E022
:101B10006E2D0E94FD1286E397E00E94401386E33B
:101B200097E06F2D0E944A1286E397E06F2D452DB6
:101B30000E9451130E94BF133B014C01E601780142
:101B400000E010E0CE018C19D82E86E397E00E94C9
:101B50005412892B09F442C0A114B10459F00E9417
:101B6000BF1366197709880999096E157F058007E3
:101B7000910730F486E397E00E945D128993E2CFEB
:101B80000E94BF136619770988099909950140E0F9
:101B900050E0621773078407950758F02D2D3327FF
:101BA00027FD3095852D90E02817390714F4DD24A2
:101BB000DA9486E397E00E9440138D2DDF91CF9158
:101BC0001F910F91FF90EF90DF90CF90BF90AF905B
:101BD0009F908F907F906F905F900895A114B104B3
:101BE00041F3CECF0F931F93FA01890141E09F018A
:101BF0000E946D0D1F910F910895DF92EF92FF9259
:101C00000F931F93DF93CF930F92CDB7DEB7E82EDC
:101C1000D62EF42E122F2091DA053091DB05AE017D
:101C20004F5F5F4F0E94F20D882341F1212F30E07A
:101C30004F2D50E04F5F5F4F421B530B81E090E010
:101C400002C0880F991F1A95E2F70197042E02C06F
:101C5000880F991F0A94E2F7202F30E002C0220F6C
:101C6000331F4A95E2F7482F409559814523822337
:101C7000482B49838E2D6D2D0E945D0D0F90CF91C5
:101C8000DF911F910F91FF90EF90DF900895EF92F9
:101C9000FF920F931F93DF93CF930F92CDB7DEB7D1
:101CA000F82EE62E042F122F2091DA053091DB0555
:101CB000AE014F5F5F4F0E94F20D2981112351F059
:101CC00081E090E002C0880F991F0A95E2F7422F49
:101CD000482B0AC081E090E002C0880F991F0A9546
:101CE000E2F7482F4095422349838F2D6E2D0E94A5
:101CF0005D0D0F90CF91DF911F910F91FF90EF90AD
:101D00000895CF92DF92EF92FF920F931F93DF938C
:101D1000CF930F92CDB7DEB7C42ED22E9701AE016E
:101D20004F5F5F4F0E94F20D682F882309F18D2DC0
:101D300090E04C2D50E04F5F5F4F481B590B21E066
:101D400030E002C0220F331FDA94E2F72150304016
:101D5000042E02C0220F331F0A94E2F789818223E6
:101D600090E002C0959587954A95E2F7F801808347
:101D7000862F0F90CF91DF911F910F91FF90EF90E1
:101D8000DF90CF900895FC0188E6808308952F921C
:101D90003F924F925F926F927F928F929F92AF92FB
:101DA000BF92CF92DF92EF92FF920F931F935C014D
:101DB0004B013A01290118019C012F5F3F4F00910F
:101DC000DA051091DB05FC0180816BE34EE00E9497
:101DD0006D0DF501918180E0228130E0822B932B03
:101DE000F40191838083F501938180E0248130E0C8
:101DF000822B932BF30191838083F501958180E001
:101E0000268130E0822B932BF20191838083F501B0
:101E1000918580E0228530E0822B932BF101918324
:101E20008083F501938580E0248530E0822B932B1D
:101E3000F70191838083F501958580E0268530E068
:101E4000822B932BF601918380831F910F91FF903A
:101E5000EF90DF90CF90BF90AF909F908F907F904A
:101E60006F905F904F903F902F900895FC01262F28
:101E700080816BE646E00E94470E08950F93FC01B7
:101E8000062F80816BE642E023E00E94FD0D0F915A
:101E900008950F93FC01062F80816CE144E022E05D
:101EA0000E94FD0D0F9108950F93FC01062F808174
:101EB0006BE144E022E00E94FD0D0F9108950F9325
:101EC0001F938C0161E00E943E0FC80160E00E94F8
:101ED000540FC80160E00E94490FC80160E00E94F1
:101EE000360F1F910F910895CF92DF92EF92FF92DC
:101EF0000F931F936C018C010F5F1F4FE090DA0569
:101F0000F090DB05FC01808165E746E026E00E9459
:101F1000810EF60181811F910F91FF90EF90DF906C
:101F2000CF9008950E94740F90E0843309F491E0FB
:101F3000892F0895882319F48CB5806202C08CB56E
:101F40008F7D8CBD08959CB5937F982B9CBD089583
:101F50002CB5382F33702C7F322B3CBD2DB590E043
:101F6000959587959595879581702E7F822B8DBD50
:101F7000089585E361E00E94451585E361E00E94D4
:101F800092148CB580618CBD8CB580648CBD84E36B
:101F900061E00E94921483E361E00E94921408952C
:101FA000880F8093BA000895382F413210F040E036
:101FB00042C080917E068823E1F791E090937E06EF
:101FC000209380068FEF8093EB061092A606415077
:101FD0004093A7064F5F90937F0680917F06330F53
:101FE000832B80937F0680918106813041F410928B
:101FF000810680917F068093BB0085EC01C085EE51
:102000008093BC0080917E068130E1F38091A6062A
:10201000841710F44091A60620E030E00AC0FB01CE
:10202000E20FF31FD901AA57B94F8C9180832F5F1C
:102030003F4F2417A0F3842F08950F931F93582F19
:10204000122F413210F081E04AC080917E06882331
:10205000E1F782E080937E06009380068FEF809305
:10206000EB061092A6064093A706A6E8B6E0FB0191
:1020700002C081918D938E2F861B8417D0F310920E
:102080007F0680917F06550F852B80937F06809178
:102090008106813041F41092810680917F06809301
:1020A000BB0085EC01C085EE8093BC00112321F0BC
:1020B00080917E068230E1F38091EB068F3F11F430
:1020C00080E00DC08091EB06803211F482E007C001
:1020D0008091EB06803311F084E001C083E01F9112
:1020E0000F910895482F613210F081E0089580919A
:1020F0007E06843011F082E008956093C906A8EA54
:10210000B6E0842F9C01F90102C081918D938E2F3E
:10211000841B8617D0F380E0089590938506809302
:1021200084060895909383068093820608951F92F3
:102130000F920FB60F920BB60F9211242F933F936D
:102140004F935F936F937F938F939F93AF93BF93BF
:10215000EF93FF938091B90090E0887F9070803674
:10216000910509F4F2C081369105CCF588329105CC
:1021700009F47BC089329105B4F48031910509F4EA
:102180006FC0813191053CF4009709F447C108976D
:1021900009F04FC165C08831910509F466C0809788
:1021A00009F047C182C08034910509F4A4C081348C
:1021B000910544F48033910509F482C0C89709F071
:1021C00038C189C08035910509F489C088359105E9
:1021D00009F496C08834910509F02BC1AEC0883946
:1021E000910509F413C189399105ECF488379105FB
:1021F00009F4ABC0893791054CF48836910509F490
:10220000A4C08037910509F014C19FC0883891059A
:1022100009F4FCC08039910509F49DC0803891050E
:1022200009F007C198C0803B910509F4C6C0813B05
:1022300091054CF4803A910509F49FC0883A9105C4
:1022400009F0F7C0BAC0803C910509F4E3C0883CAE
:10225000910509F4DFC0883B910509F0EAC0C2C0CE
:1022600080917F068093BB00CFC09091A60680919D
:10227000A706981768F49091A606E92FF0E0EA57B0
:10228000F94F80818093BB009F5F9093A606BCC0EE
:1022900080918006882309F44BC085ED8093BC00B3
:1022A0008091BC0084FDFCCFC2C080E28093EB062D
:1022B00085ED8093BC008091BC0084FDFCCFB7C04D
:1022C00080E38093EB0685ED8093BC008091BC0099
:1022D00084FDFCCFACC088E38093EB069BC080916B
:1022E000A6069091BB00E82FF0E0EA57F94F9083E3
:1022F0008F5F8093A6069091A6068091A70682C064
:102300008091A6069091BB00E82FF0E0EA57F94FC4
:1023100090838F5F8093A60680918006882341F08A
:1023200085ED8093BC008091BC0084FDFCCF7FC014
:1023300081E08093810684EA6EC085ED8093BC00C5
:102340008091BC0084FDFCCF72C083E080937E0648
:102350001092EA0659C08091EA06803208F056C011
:102360008091EA069091BB00E82FF0E0E653F94F28
:1023700090838F5F8093EA0647C08091EA0680329F
:1023800030F4E091EA06F0E0E653F94F108285ED73
:102390008093BC008091BC0084FDFCCF10927E062F
:1023A0006091EA06E0918406F09185068AEC96E059
:1023B00070E019951092EA062DC084E080937E06A5
:1023C0001092C8061092C906E0918206F091830629
:1023D00019958091C906882329F481E08093C90664
:1023E0001092A8069091C806E92FF0E0E855F94F41
:1023F00080818093BB009F5F9093C8069091C80630
:102400008091C906981710F485EC01C085E8809387
:10241000BC000FC085EC8093BC0009C01092EB0695
:1024200085ED8093BC008091BC0084FDFCCF1092B0
:102430007E06FF91EF91BF91AF919F918F917F9118
:102440006F915F914F913F912F910F900BBE0F9025
:102450000FBE0F901F90189510927E0681E080931A
:1024600080061092810684E161E00E94451585E1B5
:1024700061E00E944515E9EBF0E080818E7F80836A
:1024800080818D7F808388E48093B80085E4809389
:10249000BC00089581E08093310760930E0710928D
:1024A0002F0710923007089520910D0730E080919A
:1024B0000C07281B3109C901089540910C07809130
:1024C0000D07481718F02FEF3FEF0AC0E42FF0E098
:1024D000E451F94F8081282F30E04F5F40930C0783
:1024E000C9010895E0910C0780910D07E81718F0D5
:1024F000EFEFFFEF06C0F0E0E451F94F8081E82FE5
:10250000F0E0CF0108950895AC0120913407309197
:10251000350721153105E1F090910C0780910D07E9
:102520009817B0F090E008C0FA01EA0FFB1F808115
:10253000A451B94F8C939F5FA92FB0E0A617B7079E
:102540009CF310920C0760930D07CB01F9011995CC
:102550000895E0913207F0913307309729F01092F7
:102560002F0710923007199508951092390710928D
:10257000380788EE93E0A0E0B0E080933A079093AC
:102580003B07A0933C07B0933D0786EE95E0909300
:102590003707809336070895CF92DF92EF92FF922C
:1025A0000F931F93CF93DF937C016B018A0180917E
:1025B00031078823A1F0C0E0D0E00DC0D701ED9134
:1025C000FC91D601AC0FBD1F0190F081E02DC70139
:1025D0006C9119952196C017D10780F304C0CB01E7
:1025E000642F0E947210C801DF91CF911F910F914B
:1025F000FF90EF90DF90CF900895DF93CF930F92ED
:10260000CDB7DEB7FC016983809131078823C9F01B
:1026100080913007803238F081E090E093838283AC
:1026200020E030E015C080912F07E82FF0E0E15F57
:10263000F84F998190838F5F80932F0780933007A5
:1026400005C0CE01019661E00E94721021E030E0E9
:10265000C9010F90CF91DF9108950F93062F8091BC
:102660000E076FE077E04091300721E00E941D10D7
:1026700010922F0710923007109231070F91089592
:1026800061E00E942D130895413208F040E2862F48
:102690006CEE76E00E94D40F10920C0780930D0729
:1026A000089521E00E944413089510920C0710929F
:1026B0000D0710922F07109230070E942C120895D8
:1026C0000F931F938C01862F0E94D00F89EA92E10D
:1026D0000E94921084E892E10E948D10C8010E942D
:1026E00055131F910F9108950E94601308951F9232
:1026F0000F920FB60F9211242F933F938F939F93B6
:10270000AF93BF938091460790914707A0914807E8
:10271000B091490730914A070196A11DB11D232FA1
:102720002D5F2D3720F02D570196A11DB11D20934F
:102730004A078093460790934707A0934807B093B2
:1027400049078091420790914307A0914407B091B7
:1027500045070196A11DB11D809342079093430741
:10276000A0934407B0934507BF91AF919F918F917C
:102770003F912F910F900FBE0F901F9018958FB71C
:10278000F8942091460730914707409148075091AF
:1027900049078FBFB901CA0108959B01AC017FB7FA
:1027A000F8948091420790914307A0914407B0911B
:1027B000450766B5A89B05C06F3F19F00196A11D9E
:1027C000B11D7FBFBA2FA92F982F8827860F911D83
:1027D000A11DB11D62E0880F991FAA1FBB1F6A953A
:1027E000D1F7BC012DC0FFB7F894809142079091BA
:1027F0004307A0914407B0914507E6B5A89B05C0E3
:10280000EF3F19F00196A11DB11DFFBFBA2FA92FEF
:10281000982F88278E0F911DA11DB11DE2E0880F12
:10282000991FAA1FBB1FEA95D1F7861B970B885EDD
:102830009340C8F2215030404040504068517C4F96
:10284000211531054105510571F60895019739F0BB
:10285000880F991F880F991F02970197F1F7089524
:10286000789484B5826084BD84B5816084BD85B56B
:10287000826085BD85B5816085BDEEE6F0E0808132
:1028800081608083E1E8F0E0108280818260808353
:10289000808181608083E0E8F0E0808181608083D6
:1028A000E1EBF0E0808184608083E0EBF0E0808108
:1028B00081608083E1E9F0E08081826080838081B3
:1028C00081608083E0E9F0E0808181608083E1EADB
:1028D000F0E0808182608083808181608083E0EA93
:1028E000F0E0808181608083E1E2F1E080818260BC
:1028F0008083808181608083E0E2F1E0808181607B
:102900008083EAE7F0E08081846080838081826058
:102910008083808181608083808180688083109241
:10292000C1000895CF93DF93482F50E0CA01855C22
:102930009C4FFC0134914B505D4FFA0184918823E8
:1029400069F190E0880F991FFC01E955FD4FA591B1
:10295000B491FC01EF53FD4FC591D491662351F41E
:102960002FB7F8948C91932F909589238C9388811D
:1029700089230BC0623061F42FB7F8948C91932FA8
:10298000909589238C938881832B88832FBF06C0E1
:102990009FB7F8948C91832B8C939FBFDF91CF913D
:1029A0000895893009F449C08A30A0F4843051F187
:1029B000853040F4823079F1833000F5813009F0C0
:1029C00063C026C0873079F1883098F5863009F0E9
:1029D0005BC025C08D3009F442C08E3028F48B30A6
:1029E000B1F18C30C0F52DC0803109F442C0813185
:1029F00009F445C08F3009F047C037C0809180008E
:102A00008F7703C0809180008F7D80938000089530
:102A100084B58F7702C084B58F7D84BD0895809181
:102A2000B0008F7703C08091B0008F7D8093B0009D
:102A30000895809190008F7707C0809190008F7DDE
:102A400003C080919000877F8093900008958091CB
:102A5000A0008F7707C08091A0008F7D03C0809178
:102A6000A000877F8093A0000895809120018F7738
:102A700003C0809120018F7D809320010895809173
:102A80002001877F809320010895FF920F931F9369
:102A9000F62E482F50E0CA018F579C4FFC0124911D
:102AA000CA01855C9C4FFC0114914B505D4FFA01AB
:102AB00004910023C9F0222319F0822F0E94D1141F
:102AC000E02FF0E0EE0FFF1FEF53FD4FA591B49103
:102AD0009FB7F894FF2021F48C911095812302C0B8
:102AE0008C91812B8C939FBF1F910F91FF90089524
:102AF0000F931F93CF93DF93BC018230910510F4A5
:102B000062E070E0E091F509F091F609A0E0B0E034
:102B100040E050E024C08081918186179707D0F073
:102B20008617970771F482819381109729F0139685
:102B30009C938E9312972CC09093F6098093F5097D
:102B400027C04115510519F08417950718F4EF01B6
:102B50008D01AC01DF01828193819C01F9013097E5
:102B6000D1F641155105F9F0CA01861B970B843047
:102B7000910580F48A819B810115110521F0F801EE
:102B80009383828304C09093F6098093F509FE0134
:102B9000329645C0FE01E80FF91F619371930297C9
:102BA000998388833CC08091F3099091F409892B23
:102BB00041F48091DE059091DF059093F4098093B4
:102BC000F3094091E0055091E1054115510541F4AB
:102BD0004DB75EB78091DC059091DD05481B590B20
:102BE0002091F3093091F40924173507B0F4CA0194
:102BF000821B930B8617970780F0AB014E5F5F4FE8
:102C00008417950750F0420F531F5093F4094093D7
:102C1000F309F9016193719302C0E0E0F0E0CF01A4
:102C2000DF91CF911F910F910895CF93DF939C0176
:102C3000009709F48FC0EC0122971B821A826091E1
:102C4000F5097091F6096115710581F48881998102
:102C5000820F931F2091F3093091F4092817390747
:102C600039F5D093F409C093F30974C0DB0140E057
:102C700050E0AC17BD0708F1BB83AA83FE01219188
:102C80003191E20FF31FAE17BF0779F48D919C913C
:102C90001197280F391F2E5F3F4F398328831296D3
:102CA0008D919C9113979B838A834115510571F4F3
:102CB000D093F609C093F5094DC012968D919C9161
:102CC0001397AD01009711F0DC01D3CFDA01139611
:102CD000DC93CE931297FA0121913191E20FF31F09
:102CE000CE17DF0769F488819981280F391F2E5F7D
:102CF0003F4FFA01318320838A819B8193838283B2
:102D0000E0E0F0E0DB0112968D919C911397009723
:102D100019F0BC01FD01F6CFAB014E5F5F4FDB0147
:102D20008D919C91840F951F2091F3093091F409A6
:102D30002817390779F4309729F41092F609109280
:102D4000F50902C013821282425050405093F40998
:102D50004093F309DF91CF91089508951F920F9248
:102D60000FB60F920BB60F9211242F933F934F93F0
:102D70008F939F93EF93FF938091C00082FD1DC0BE
:102D80004091C60020918B0730918C072F5F3F4FF9
:102D90002F73307080918D0790918E072817390717
:102DA00071F0E0918B07F0918C07E55BF84F408361
:102DB00030938C0720938B0702C08091C600FF914F
:102DC000EF919F918F914F913F912F910F900BBE5B
:102DD0000F900FBE0F901F90189508951F920F929D
:102DE0000FB60F920BB60F9211242F933F934F9370
:102DF0008F939F93EF93FF938091C80082FD1DC036
:102E00004091CE0020911308309114082F5F3F4F5E
:102E10002F73307080911508909116082817390784
:102E200071F0E0911308F0911408ED52F84F4083CF
:102E3000309314082093130802C08091CE00FF91B4
:102E4000EF919F918F914F913F912F910F900BBEDA
:102E50000F900FBE0F901F90189508951F920F921C
:102E60000FB60F920BB60F9211242F933F934F93EF
:102E70008F939F93EF93FF938091D00082FD1DC0AD
:102E80004091D60020919B0830919C082F5F3F4FC6
:102E90002F73307080919D0890919E0828173907F4
:102EA00071F0E0919B08F0919C08E55AF74F408340
:102EB00030939C0820939B0802C08091D600FF911C
:102EC000EF919F918F914F913F912F910F900BBE5A
:102ED0000F900FBE0F901F90189508951F920F929C
:102EE0000FB60F920BB60F9211242F933F934F936F
:102EF0008F939F93EF93FF938091300182FD1DC0CC
:102F00004091360120912309309124092F5F3F4FD2
:102F10002F73307080912509909126092817390761
:102F200071F0E0912309F0912409ED51F74F4083AE
:102F3000309324092093230902C080913601FF9128
:102F4000EF919F918F914F913F912F910F900BBED9
:102F50000F900FBE0F901F901895E0917709F09198
:102F60007809E05CFF4F8191919120813181821B32
:102F7000930B8F739070892B11F00E94AD16E09126
:102F80009909F0919A09E05CFF4F8191919120811C
:102F90003181821B930B8F739070892B11F00E94EB
:102FA000ED16E091BB09F091BC09E05CFF4F819107
:102FB000919120813181821B930B8F739070892BAB
:102FC00011F00E942D17E091DD09F091DE09E05C1F
:102FD000FF4F8191919120813181821B930B8F73DF
:102FE0009070892B11F00E946D1708951F920F9217
:102FF0000FB60F920BB60F9211242F933F938F931E
:103000009F93EF93FF932091CF073091D00780914A
:10301000D1079091D2072817390731F48091C10068
:103020008F7D8093C10014C0E091D107F091D20749
:10303000E157F84F20818091D1079091D2070196F6
:103040008F7390709093D2078093D1072093C6001E
:10305000FF91EF919F918F913F912F910F900BBE18
:103060000F900FBE0F901F9018951F920F920FB6E2
:103070000F920BB60F9211242F933F938F939F9330
:10308000EF93FF9320915708309158088091590889
:1030900090915A082817390731F48091C9008F7D23
:1030A0008093C90014C0E0915908F0915A08E95E74
:1030B000F74F20818091590890915A0801968F739B
:1030C000907090935A08809359082093CE00FF91F6
:1030D000EF919F918F913F912F910F900BBE0F9089
:1030E0000FBE0F901F9018951F920F920FB60F9260
:1030F0000BB60F9211242F933F938F939F93EF93CF
:10310000FF932091DF083091E0088091E1089091D1
:10311000E2082817390731F48091D1008F7D809320
:10312000D10014C0E091E108F091E208E156F74FB8
:1031300020818091E1089091E20801968F73907050
:103140009093E2088093E1082093D600FF91EF91DD
:103150009F918F913F912F910F900BBE0F900FBEBB
:103160000F901F9018951F920F920FB60F920BB6EB
:103170000F9211242F933F938F939F93EF93FF937D
:1031800020916709309168098091690990916A09D5
:103190002817390731F4809131018F7D80933101F7
:1031A00014C0E0916909F0916A09E95DF64F208148
:1031B0008091690990916A0901968F73907090933C
:1031C0006A098093690920933601FF91EF919F91DD
:1031D0008F913F912F910F900BBE0F900FBE0F90CC
:1031E0001F901895AF92BF92DF92EF92FF920F93CC
:1031F0001F93CF93DF93EC017A018B01DD244030E4
:1032000081EE580780E0680780E0780711F0DD2440
:10321000D39491E0A92EB12CEC89FD89DD2069F0D1
:10322000C50108A002C0880F991F0A94E2F78083A5
:1032300060E079E08DE390E005C0108260E874E81A
:103240008EE190E0A80197010E94F01E21503040CD
:1032500040405040569547953795279580E120305E
:10326000380720F0DD2011F0DD24D6CFE889F98978
:103270003083EA89FB89208319A2EE89FF89408186
:1032800021E030E0C9010C8C02C0880F991F0A941C
:10329000E2F7482B4083EE89FF894081C9010D8CFC
:1032A00002C0880F991F0A94E2F7482B4083EE89E9
:1032B000FF894081C9010E8C02C0880F991F0A94B2
:1032C000E2F7482B4083EE89FF8980810F8C02C092
:1032D000220F331F0A94E2F7209528232083DF91E1
:1032E000CF911F910F91FF90EF90DF90BF90AF9023
:1032F0000895DC011C96ED91FC911D97E05CFF4F59
:103300002191319180819181281B390B2F7330706D
:10331000C9010895DC011C96ED91FC911D97E05CBC
:10332000FF4F20813181E054F040DF01AE5BBF4FA1
:103330008D919C9111972817390719F42FEF3FEFC2
:1033400007C08D919C91E80FF91F8081282F30E0F4
:10335000C9010895DC011C96ED91FC911D97E05C7C
:10336000FF4F20813181E054F040DF01AE5BBF4F61
:103370008D919C9111972817390719F42FEF3FEF82
:1033800010C08D919C911197E80FF91F20818D91AC
:103390009C91119701968F73907011969C938E93C8
:1033A00030E0C9010895DC0191968C9191978823B2
:1033B00039F05496ED91FC915597808186FFF9CFB5
:1033C00091961C920895CF93DF93EC01EE85FF85D3
:1033D000E05CFF4F20813181E054F0402F5F3F4F90
:1033E0002F733070DF01AE5BBF4F8D919C911197B1
:1033F00028173907D1F3E05CFF4F80819181E054B9
:10340000F040E80FF91F6083EE85FF85E05CFF4F19
:1034100031832083EE89FF89208181E090E00F8C49
:1034200002C0880F991F0A94E2F7282B208381E0BD
:1034300089A3EC89FD8980818064808381E090E0AC
:10344000DF91CF9108951F9310926E0910926D092C
:1034500028EE33E040E050E020936F09309370098C
:10346000409371095093720966EF75E070936C098F
:1034700060936B098BE497E09093780980937709C8
:103480008FE897E090937A098093790985EC90E032
:1034900090937C0980937B0984EC90E090937E0963
:1034A00080937D0980EC90E09093800980937F0960
:1034B00081EC90E0909382098093810982EC90E006
:1034C000909384098093830986EC90E09093860919
:1034D0008093850914E010938709B3E0B0938809BD
:1034E000A7E0A0938909F5E0F0938A09E1E0E09371
:1034F0008B091092900910928F09209391093093B3
:103500009209409393095093940970938E096093A4
:103510008D0983ED97E090939A098093990987E14B
:1035200098E090939C0980939B098DEC90E0909398
:103530009E0980939D098CEC90E09093A009809364
:103540009F0988EC90E09093A2098093A10989ECEF
:1035500090E09093A4098093A3098AEC90E0909363
:10356000A6098093A5098EEC90E09093A80980931A
:10357000A7091093A909B093AA09A093AB09F093E6
:10358000AC09E093AD091092B2091092B1092093F1
:10359000B3093093B4094093B5095093B6097093B9
:1035A000B0096093AF098BE598E09093BC098093D4
:1035B000BB098FE998E09093BE098093BD0985ED22
:1035C00090E09093C0098093BF0984ED90E09093C0
:1035D000C2098093C10980ED90E09093C409809363
:1035E000C30981ED90E09093C6098093C50982EDEF
:1035F00090E09093C8098093C70986ED90E090937E
:10360000CA098093C9091093CB09B093CC09A09340
:10361000CD09F093CE09E093CF091092D40910920E
:10362000D3092093D5093093D6094093D7095093F5
:10363000D8097093D2096093D10983EE98E09093F2
:10364000DE098093DD0987E299E09093E009809399
:10365000DF0985E391E09093E2098093E10984E337
:1036600091E09093E4098093E30980E391E09093E3
:10367000E6098093E50981E391E09093E80980935E
:10368000E70982E391E09093EA098093E90986E3F0
:1036900091E09093EC098093EB091093ED09B093BE
:1036A000EE09A093EF09F093F009E093F1091F915F
:1036B0000895CF92DF92EF92FF920F931F93CF93D3
:1036C000DF937C016B018A01C0E0D0E00FC0D6011E
:1036D0006D916D01D701ED91FC910190F081E02D8C
:1036E000C7011995C80FD91F0150104001151105C8
:1036F00071F7CE01DF91CF911F910F91FF90EF9065
:10370000DF90CF900895EF92FF920F931F938C015B
:10371000DC01ED91FC910190F081E02D6DE01995B7
:103720007C01D801ED91FC910190F081E02DC80160
:103730006AE019959C012E0D3F1DC9011F910F9143
:10374000FF90EF900895CF93DF93EC016115710521
:1037500019F420E030E00FC0DB010D900020E9F704
:103760001197A61BB70BE881F9810280F381E02D48
:10377000AD0119959C01C901DF91CF9108954F9238
:103780005F927F928F929F92AF92BF92CF92DF9281
:10379000EF92FF920F931F93DF93CF93CDB7DEB7D6
:1037A000A1970FB6F894DEBF0FBECDBF2C01742ECB
:1037B000CB01223008F42AE019A231E2C32ED12C29
:1037C000CC0EDD1E822E9924AA24BB24672D752FD2
:1037D000A50194010E94F01E79018A01C801B70178
:1037E000A50194010E94AA1E472D461B0894C108FA
:1037F000D1084A3014F4405D01C0495CF6014083B1
:10380000E114F1040105110521F07E2C5F2DC801A2
:10381000DDCFC201B6010E94A31BA1960FB6F8949A
:10382000DEBF0FBECDBFCF91DF911F910F91FF90F3
:10383000EF90DF90CF90BF90AF909F908F907F9050
:103840005F904F900895CF92DF92EF92FF920F9387
:103850001F93CF93DF93EC016A017B0121153105A2
:1038600041F4E881F9810190F081E02D642F1995F0
:103870001FC02A303105D1F477FF17C0E881F981E4
:103880000190F081E02D6DE219958C0144275527B8
:10389000BA014C195D096E097F09CE012AE00E9428
:1038A000BF1B9801280F391F04C02AE00E94BF1BCC
:1038B0009C01C901DF91CF911F910F91FF90EF9073
:1038C000DF90CF900895EF92FF920F931F937B01AB
:1038D0009A010027F7FC0095102FB801A7010E945C
:1038E000231C1F910F91FF90EF9008950E94A31B3E
:1038F0000895EF92FF920F931F937C010E94A31BE8
:103900008C01C7010E94831B080F191FC8011F915A
:103910000F91FF90EF900895AF92BF92CF92DF92F8
:10392000EF92FF920F931F93CF93DF935C016B0194
:10393000EE24FF24C0E0D0E010C0D501ED91FC9151
:1039400000811181C601BE010E94201D682FC501A2
:10395000F8011995E80EF91E2196F60184819581EA
:10396000C817D90750F3C701DF91CF911F910F916D
:10397000FF90EF90DF90CF90BF90AF900895CF93DE
:10398000DF93EC010E94BF13688779878A879B8742
:10399000E881F9810680F781E02DCE0119959C011F
:1039A00097FF15C00E94BF13288539854A855B851E
:1039B000621B730B840B950B2C813D814E815F81C3
:1039C000621773078407950718F32FEF3FEFC901BC
:1039D000DF91CF910895AF92BF92CF92DF92EF9295
:1039E000FF920F931F93CF93DF935C017A018901BC
:1039F0002115310519F4C0E0D0E016C0C0E0D0E0D8
:103A0000C62EDD24C7FCD0940CC0C5010E94BF1C8B
:103A100097FD0AC08C159D0539F0F70181937F0150
:103A20002196C017D10788F3CE01DF91CF911F9166
:103A30000F91FF90EF90DF90CF90BF90AF900895DF
:103A4000FC01848195816817790748F40190F08121
:103A5000E02D309721F0E60FF71F8081089580E078
:103A600008950F931F93CF93DF93EC018B016F5F4A
:103A70007F4F888199810E94C91D009711F480E0D1
:103A800005C0998388831B830A8381E0DF91CF91EE
:103A90001F910F910895CF93DF93EC018881998155
:103AA000892B29F08A819B818617970760F4CE01C4
:103AB0000E94311D882341F08C819D81892B19F44E
:103AC000E881F981108281E0DF91CF910895CF9351
:103AD000DF93EC0188819981009711F00E941516FF
:103AE000198218821D821C821B821A82DF91CF915B
:103AF0000895EF92FF920F931F93CF93DF93EC0102
:103B00007B018A01BA010E944B1D882321F4CE015A
:103B10000E94671D07C01D830C8388819981B701AE
:103B20000E944F02CE01DF91CF911F910F91FF9024
:103B3000EF900895CF93DF93EC01198218821B82D6
:103B40001A821D821C821E826115710551F0DB01F3
:103B50000D900020E9F71197A61BB70BAD010E944D
:103B6000791DDF91CF910895FC01808191810E94A0
:103B700015160895CF93DF930E9430140E943409E4
:103B8000CDEAD7E10E94BF022097E1F30E94AD1772
:103B9000F9CF6F927F928F929F92AF92BF92CF9206
:103BA000DF92EF92FF920F931F93CF93DF938C01DD
:103BB000009729F4CB010E9478158C01BBC08EEFD1
:103BC000E82E8FEFF82EE00EF11E4801860E971EAC
:103BD0008E149F0408F4ACC0D7014D915C911197ED
:103BE00046175707B8F04530510508F4A3C0CA017D
:103BF00004978617970708F49DC042505040461B13
:103C0000570BF401419351936D937C93CF010E9424
:103C1000151690C05B01A41AB50A3801640E751E12
:103C2000A091F509B091F609CC24DD24E0E0F0E0A4
:103C300047C0A615B705A9F5CD91DC911197CE0126
:103C400002968A159B0568F1CE018A199B09029696
:103C500012962C91129713963C91059758F0F40107
:103C600022833383CA19DB09D183C083D7016D93C3
:103C70007C9309C04E5F5F4F4C0F5D1FF70151836E
:103C80004083C901FC01C114D10431F0D60113965F
:103C9000FC93EE9312974EC0F093F609E093F5096A
:103CA00049C08D919C911197E817F90708F4FC0120
:103CB0006D0112968C91129713969C919C01D901DB
:103CC000109709F0B6CF8091F3099091F409861509
:103CD0009705E9F4E617F707D0F42091E005309155
:103CE000E1052115310541F42DB73EB78091DC0582
:103CF0009091DD05281B390B82169306C8F490922B
:103D0000F4098092F309F7017183608313C0CB013A
:103D10000E947815EC01009759F0D7014D915C9104
:103D2000B8010E943D02C8010E9415168E0102C012
:103D300000E010E0C801DF91CF911F910F91FF903B
:103D4000EF90DF90CF90BF90AF909F908F907F903B
:103D50006F900895629FD001739FF001829FE00DE4
:103D6000F11D649FE00DF11D929FF00D839FF00DFA
:103D7000749FF00D659FF00D9927729FB00DE11DA6
:103D8000F91F639FB00DE11DF91FBD01CF01112483
:103D90000895AA1BBB1B51E107C0AA1FBB1FA61792
:103DA000B70710F0A61BB70B881F991F5A95A9F7E4
:103DB00080959095BC01CD01089597FB092E0726AB
:103DC0000AD077FD04D0E5DF06D000201AF4709504
:103DD00061957F4F0895F6F7909581959F4F0895CF
:103DE000A1E21A2EAA1BBB1BFD010DC0AA1FBB1FFF
:103DF000EE1FFF1FA217B307E407F50720F0A21B71
:103E0000B30BE40BF50B661F771F881F991F1A94DD
:103E100069F760957095809590959B01AC01BD0107
:103E2000CF010895EE0FFF1F0590F491E02D199436
:103E300013E0CEECD3E004C0FE010E94141F2296D2
:0A3E4000C03DD107C9F7F894FFCF89
:103E4A00302E322E31002000534554005550444143
:103E5A00544520534554504F494E540052554E0034
:103E6A00524F6C6C2042422D3820524F4C4C20212C
:103E7A000053544F5000524553455400424F4F543B
:103E8A0000424F4F54494E472055502E2E2E005275
:103E9A004F54415445004D4F564500454E41424C02
:103EAA004500424F4F542078312000424F4F542052
:103EBA0079312000424F4F54207A31200053544127
:103ECA00542062312000426F6F74696E672055502A
:103EDA00204F4B210053454E44202752554E200A6D
:103EEA002720666F7220737461727420746865206B
:103EFA0070726F64756374696F6E003D3D3D3D3D40
:103F0A003D3D3D3D3D3D3D3D3D3D3D3D3D3D3D3DD7
:103F1A003D3D3D3D3D3D3D3D3D3D3D3D3D3D3D3DC7
:103F2A003D3D3D3D3D3D3D3D3D3D3D3D3D0020202E
:103F3A005F5F5F5F5F5F5F205F5F5F5F5F5F202044
:103F4A002020205F20202020205F20205F5F5F5FED
:103F5A005F5F20205F5F5F5F205F5F5F5F5F5F2063
:103F6A000020285F5F5F5F202020285F5F5F5F205F
:103F7A0020292020207C207C2020207C207C2F20AF
:103F8A005F5F5F20207C285F5F5F5F7C5F5F5F5FB2
:103F9A005F5F290020205F5F5F5F292020295F5F24
:103FAA005F5F292020295F5F7C207C2020207C20E5
:103FBA007C207C2020207C207C207C207C202020CF
:103FCA007C207C20202000207C20205F5F2020286D
:103FDA007C20205F5F2020285F5F5F29207C2020D3
:103FEA00207C207C207C2020207C207C207C207C43
:103FFA002020207C207C20202000207C207C5F5FE9
:10400A0029202029207C5F5F2920202920207C204C
:10401A007C5F5F5F7C207C207C2020207C207C5F72
:10402A007C207C5F20207C207C20202000207C5F5C
:10403A005F5F5F5F5F2F7C5F5F5F5F5F5F2F202047
:10404A00207C5F5F5F5F5F5F2F7C5F7C2020207C2E
:10405A005F285F5F5F5F5F29207C5F7C20202000F4
:10406A002020202020202020202020205F20417393
:10407A0074726F6D65636820496E647573747269D2
:10408A0065205F20202020202020202020202020A2
:10409A002020002020202020203E20687474707385
:1040AA003A2F2F6769746875622E636F6D2F477296
:1040BA00756E69656B2F42422D554E4954203C203E
:1040CA002020202020002020202020202020202006
:1040DA00203E20687474703A2F2F72326275696CB0
:1040EA00646572732E66722F203C202020202020C7
:1040FA0020202020202020200020202020202020D6
:10410A00202020204649524D5741524520564552BB
:10411A0053494F4E203A20002020202020202020E2
:10412A0020202020202020005B315D2D426F6F74FB
:10413A00696E672075702E2E2E005B325D2D496EDA
:10414A00697469616C697A696E67204932432064CF
:10415A006576696365732E2E2E20204932432041ED
:10416A004452455353203A005B335D2D436F6E6EC4
:10417A0065637420746F20746865204D505536301D
:10418A003530203A2000436F6E6E656374696F6E36
:10419A00206661696C656400436F6E6E656374695D
:1041AA006F6E207375636365737366756C005B3439
:1041BA005D2D496E697469616C697A696E6720520E
:1041CA0046323420646576696365732E2E2E20206C
:1041DA00003D3D3D3D3D3D3D3D3D3D3D3D3D3D3D42
:1041EA003D3D3D3D3D00426F6F74696E67207375BA
:1041FA00636365737366756C202100012D00870067
:10420A002D008700FAFF0100020001015A005A003E
:10421A000F0064000000E8030000E8038000F709CB
:10422A00000000000000FD12CC1254125D1272123E
:10423A00831200000000E319591B7919AA198A1977
:02424A00D31986
:00000001FF
